:020000044000BA
:10000000130101FE232E8100130401022326A4FE06
:100010008327C4FE23A007008327C4FE23A4070070
:10002000130000000324C1011301010267800000D6
:10003000130101FE232E8100130401022326A4FED6
:10004000130000000324C1011301010267800000B6
:10005000130101FE232E8100130401022326A4FEB6
:100060008327C4FE23A207008327C4FE1307F0FFE3
:1000700023A0E700130000000324C10113010102C3
:1000800067800000130101FE232E8100130401028A
:100090002326A4FE8327C4FE83A7470093D7070126
:1000A00093F7F70F138507000324C1011301010221
:1000B00067800000130101FE232E8100130401025A
:1000C0002326A4FE8327C4FE83A7470093D7870176
:1000D000138507000324C10113010102678000009A
:1000E000130101FE232E1100232C810013040102B1
:1000F0002326A4FE2324B4FE130000000325C4FE1F
:10010000EFF05FF893070500E38A07FE8327C4FE3C
:10011000032784FE23A0E700130000008320C10111
:10012000032481011301010267800000130101FE15
:10013000232E8100130401022326A4FE2324B4FEEF
:10014000832784FE03A7C7008327C4FE23A4E700F8
:10015000832784FE83A707001387F7FF832784FE86
:1001600083A74700939787003367F700832784FEB0
:1001700083A78700939707013367F7008327C4FE9F
:1001800023A6E700130000000324C10113010102AC
:1001900067800000130101FE232E81001304010279
:1001A0002326A4FE8327C4FE83A7070093F7270016
:1001B000B337F00093F7F70F138507000324C1014D
:1001C0001301010267800000130101FE232E81004C
:1001D000130401022326A4FE8327C4FE1307100084
:1001E00023A0E700130000000324C1011301010252
:1001F00067800000130101FE232E1100232C8100D3
:10020000130401022326A4FE8327C4FE23A00700B3
:10021000130000000325C4FEEFF0DFF7930705008D
:10022000E39A07FE13000000130000008320C101C1
:10023000032481011301010267800000130101FE04
:10024000232E8100130401022326A4FE2324B4FEDE
:10025000B75700F0032784FE23A2E700B76700F03A
:100260000327C4FE23A2E700B73700F013071000EE
:1002700023A2E700B74700F023A20700B72700F04A
:100280001307100023A2E700B72700F023A20700FE
:10029000130000000324C101130101026780000064
:1002A000130101FD2326810213040103232EA4FC64
:1002B000B75700F00327C4FD23A2E700B74700F0BB
:1002C0001307100023A2E700B73700F023A20700AE
:1002D000B72700F01307100023A2E700B70700F0CC
:1002E00083A707002326F4FEB72700F023A2070008
:1002F0008327C4FE138507000324C10213010103F1
:1003000067800000130101FF23268100130401010F
:10031000B72700F01307100023A2E700B74700F04B
:100320001307100023A2E700B73700F013071000EF
:1003300023A2E700130000000324C1001301010100
:1003400067800000130101FE232E1100232C810081
:10035000130401022326A4FE6F0000028327C4FEBB
:10036000138717002326E4FE83C707009385070041
:10037000370501F0EFF0DFD68327C4FE83C70700FF
:10038000E39E07FC13000000130000008320C1015E
:10039000032481011301010267800000130101FDA4
:1003A00023261102232481021304010393078000F2
:1003B000232EF4FC232004FE232204FE9307500383
:1003C0002324F4FE9307C4FD93850700370501F04D
:1003D000EFF0DFD5B707004013858762EFF09FF697
:1003E000B707004013854765EFF0DFF5B70700401A
:1003F00013850769EFF01FF5B70700401385C76B3A
:10040000EFF05FF4B70700401385076EEFF09FF33E
:100410009305000013055001EFF05FE29305100013
:1004200013057001EFF09FE19305200013055003C1
:10043000EFF0DFE09305300013055007EFF01FE009
:1004400013050000EFF0DFE52326A4FE13051000DE
:10045000EFF01FE52326A4FE13053000EFF05FE464
:100460002326A4FE13052000EFF09FE32326A4FE1D
:10047000B74700F01307100023A2E700B73700F0DA
:100480001307100023A2E700B75700F023A20700CC
:10049000B76700F023A20700B72700F0130710008A
:1004A00023A2E700B72700F023A20700B75700F008
:1004B0001307100023A2E700B76700F013077000CE
:1004C00023A2E700B74700F023A20700B72700F0F8
:1004D0001307100023A2E700B72700F023A20700AC
:1004E000B75700F01307300023A2E700B76700F00A
:1004F0001307500123A2E700B74700F023A207002B
:10050000B72700F01307100023A2E700B72700F079
:1005100023A20700B75700F01307100023A2E7003B
:10052000B74700F01307100023A2E700B73700F029
:1005300023A20700B70700F083A707002326F4FED5
:10054000B72700F01307100023A2E700B72700F039
:1005500023A20700B75700F01307300023A2E700DB
:10056000B74700F01307100023A2E700B73700F0E9
:1005700023A20700B70700F083A707002326F4FE95
:10058000B72700F01307100023A2E700B72700F0F9
:1005900023A2070093070000138507008320C102F0
:1005A000032481021301010367800000130101FF8E
:1005B0002326810013040101130000000324C1005D
:0805C000130101016780000036
:1005C800600000002003000070000000F00200003E
:1005D800020000000D0200000C000000EC01000009
:1005E8000800000046000000100000004000000065
:1005F8000200000030000000080000002800000091
:1006080008000000B800000010000000B000000062
:100618000200000082000000060000007E000000CA
:1006280057656C6C2C2068656C6C6F2074686572FB
:1006380065202120E38193E38293E381ABE381A1E9
:10064800E381AFE380820D0A00000000556E6976F1
:10065800657273697479206F6620456C656374727E
:100668006F2D436F6D6D756E69636174696F6E731D
:100678002028554543292C20546F6B796F2C204A2C
:100688006170616E0D0A0000E99BBBE6B097E980D6
:100698009AE4BFA1E5A4A7E5ADA6E38081E69DB1F4
:1006A800E4BAACE983BDE38081E697A5E69CAC0D8E
:1006B8000A00000041455320416363656C6572611F
:1006C800746F72202D20447579204C696E68204C17
:1006D80065204B31380D0A00427269657920536FE5
:0C06E80043206F6E20465047410D0A0071
:0406F4000000000002
:0200000480007A
:100000006F00400B130000001300000013000000FD
:100010001300000013000000130000001300000094
:10002000232E11FE232C51FE232A61FE232871FE6C
:100030002326A1FE2324B1FE2322C1FE2320D1FECC
:10004000232EE1FC232CF1FC232A01FD232811FDA2
:100050002326C1FD2324D1FD2322E1FD2320F1FD30
:10006000130101FC970000C0E78080548320C10386
:100070008322810303234103832301030325C10258
:100080008325810203264102832601020327C10141
:10009000832781010328410183280101032EC10028
:1000A000832E8100032F4100832F010013010104DF
:1000B00073002030971100C0938141E417110000B4
:1000C00013014188170500C013054563938581809E
:1000D0006308B50023200500130545006FF05FFF9E
:1000E000170500C0130545611301C1FF970500C046
:1000F00093858560630EB5008326050013054500D2
:100100002320A100E7800600032501006FF01FFEF9
:1001100013014100371500001305058873104530A1
:10012000372500001305858073100530970000C047
:08013000E78000276F000000CA
:040000058000000077
:00000001FF
