:020000044000BA
:10000000130101FE232E8100130401022326A4FE06
:100010008327C4FE23A007008327C4FE23A4070070
:10002000130000000324C1011301010267800000D6
:10003000130101FE232E8100130401022326A4FED6
:10004000130000000324C1011301010267800000B6
:10005000130101FE232E8100130401022326A4FEB6
:100060008327C4FE23A207008327C4FE1307F0FFE3
:1000700023A0E700130000000324C10113010102C3
:1000800067800000130101FE232E8100130401028A
:100090002326A4FE8327C4FE83A7470093D7070126
:1000A00093F7F70F138507000324C1011301010221
:1000B00067800000130101FE232E8100130401025A
:1000C0002326A4FE8327C4FE83A7470093D7870176
:1000D000138507000324C10113010102678000009A
:1000E000130101FE232E1100232C810013040102B1
:1000F0002326A4FE2324B4FE130000000325C4FE1F
:10010000EFF05FF893070500E38A07FE8327C4FE3C
:10011000032784FE23A0E700130000008320C10111
:10012000032481011301010267800000130101FE15
:10013000232E8100130401022326A4FE2324B4FEEF
:10014000832784FE03A7C7008327C4FE23A4E700F8
:10015000832784FE83A707001387F7FF832784FE86
:1001600083A74700939787003367F700832784FEB0
:1001700083A78700939707013367F7008327C4FE9F
:1001800023A6E700130000000324C10113010102AC
:1001900067800000130101FE232E81001304010279
:1001A0002326A4FE8327C4FE83A7070093F7270016
:1001B000B337F00093F7F70F138507000324C1014D
:1001C0001301010267800000130101FE232E81004C
:1001D000130401022326A4FE8327C4FE1307100084
:1001E00023A0E700130000000324C1011301010252
:1001F00067800000130101FE232E1100232C8100D3
:10020000130401022326A4FE8327C4FE23A00700B3
:10021000130000000325C4FEEFF0DFF7930705008D
:10022000E39A07FE13000000130000008320C101C1
:10023000032481011301010267800000130101FE04
:10024000232E8100130401022326A4FE2324B4FEDE
:10025000B72700F023A20700B73700F023A207005A
:10026000B74700F01307100023A2E700B75700F0CC
:10027000032784FE23A2E700B76700F00327C4FE2C
:1002800023A2E700130000000324C10113010102AF
:1002900067800000130101FD23268102130401037E
:1002A000232EA4FCB72700F023A20700B73700F0E5
:1002B0001307100023A2E700B74700F023A20700AE
:1002C000B75700F00327C4FD23A2E700B77700F07B
:1002D00083A707002326F4FEB77700F083A7070063
:1002E000138507000324C102130101036780000086
:1002F000130101FF2326810013040101B72700F039
:100300001307100023A2E700B73700F0130710000F
:1003100023A2E700B74700F01307100023A2E7006D
:10032000130000000324C1001301010167800000D5
:10033000130101FE232E1100232C8100130401025E
:100340002326A4FE6F0000028327C4FE1387170034
:100350002326E4FE83C7070093850700370501F0D5
:10036000EFF01FD88327C4FE83C70700E39E07FC76
:1003700013000000130000008320C1010324810149
:100380001301010267800000130101F8232E1106FA
:10039000232C81061304010893078000232AF4F814
:1003A000232C04F8232E04F8930750032320F4FA97
:1003B000930744F993850700370501F0EFF01FD745
:1003C000B707004013858771EFF09FF6B70700402D
:1003D00013854774EFF0DFF5B70700401385077802
:1003E000EFF01FF5B70700401385C77AEFF05FF411
:1003F000B70700401385077DEFF09FF39307900345
:10040000232CF4FC93072001232AF4FC832784FD8A
:100410002324F4FA832744FD2322F4FA832784FA61
:10042000032744FAAB97E7109380070093870000F7
:100430002328F4FC832784FD032744FDABF7E70062
:1004400093800700938700002326F4FC832784FD14
:10045000032744FDABF7E702938007009387000072
:100460002324F4FCB70700F0032704FD23A2E700D0
:10047000B70700F083A707002322F4FCB72700F09A
:100480001307100023A2E700B73700F0130710008E
:1004900023A2E700B75700F023A20700B76700F0D8
:1004A0001307300223A2E700B75700F0130710002C
:1004B00023A2E700B76700F01307900123A2E7002B
:1004C000B72700F023A20700232404FE6F000003D7
:1004D000232204FE6F000001832744FE9387170048
:1004E0002322F4FE032744FEB7870000E346F7FE0D
:1004F000832784FE938717002324F4FE032784FEBA
:1005000093079000E3D6E7FCB72700F0130710002D
:1005100023A2E700B73700F023A20700232004FE40
:100520006F000003232E04FC6F0000018327C4FD2D
:1005300093871700232EF4FC0327C4FDB787000020
:10054000E346F7FE832704FE938717002320F4FE7B
:10055000032704FE93079000E3D6E7FCB75700F0AB
:100560001307100023A2E700B77700F083A7070066
:100570002320F4FCB75700F01307100023A2E70074
:10058000B77700F083A707002320F4FCB76700F0DB
:100590001307C00023A2E700B73700F023A207002B
:1005A000B73700F01307100023A2E700B74700F0A9
:1005B00023A20700B77700F083A70700232EF4FAE1
:1005C000B74700F023A20700B77700F083A7070022
:1005D000232EF4FAB76700F01307200223A2E700E6
:1005E000B77700F083A70700232EF4FA93050000E5
:1005F00013053012EFF09FC49305100013056045FA
:10060000EFF0DFC39305200013059078EFF01FC3D0
:100610009305300013050001EFF05FC213050000E1
:10062000EFF05FC7232CA4FA13051000EFF09FC66C
:10063000232AA4FA13052000EFF0DFC52328A4FA2B
:1006400013053000EFF01FC52326A4FA232604FE6D
:100650006F00C001B70700F00327C4FE23A2E70024
:100660008327C4FE938717002326F4FE0327C4FEC6
:1006700093073006E3D0E7FE370700F0B70700F036
:100680000327870023A2E700371700F0B71700F011
:100690000327870023A2E7006FF01FFE130101FF6D
:1006A0002326810013040101130000000324C1006C
:0806B000130101016780000045
:1006B800600000002003000070000000F00200004D
:1006C800020000000D0200000C000000EC01000018
:1006D8000800000046000000100000004000000074
:1006E80002000000300000000800000028000000A0
:1006F80008000000B800000010000000B000000072
:100708000200000082000000060000007E000000D9
:1007180057656C6C2C2068656C6C6F20746865720A
:1007280065202120E38193E38293E381ABE381A1F8
:10073800E381AFE380820D0A00000000556E697600
:10074800657273697479206F6620456C656374728D
:100758006F2D436F6D6D756E69636174696F6E732C
:100768002028554543292C20546F6B796F2C204A3B
:100778006170616E0D0A0000E99BBBE6B097E980E5
:100788009AE4BFA1E5A4A7E5ADA6E38081E69DB103
:10079800E4BAACE983BDE38081E697A5E69CAC0D9D
:1007A8000A00000041455320416363656C6572612E
:1007B800746F72202D20447579204C696E68204C26
:1007C80065204B31380D0A00427269657920536FF4
:0C07D80043206F6E20465047410D0A0080
:0407E4000000000011
:0200000480007A
:100000006F00400B130000001300000013000000FD
:100010001300000013000000130000001300000094
:10002000232E11FE232C51FE232A61FE232871FE6C
:100030002326A1FE2324B1FE2322C1FE2320D1FECC
:10004000232EE1FC232CF1FC232A01FD232811FDA2
:100050002326C1FD2324D1FD2322E1FD2320F1FD30
:10006000130101FC970000C0E78080638320C10377
:100070008322810303234103832301030325C10258
:100080008325810203264102832601020327C10141
:10009000832781010328410183280101032EC10028
:1000A000832E8100032F4100832F010013010104DF
:1000B00073002030971100C0938141F317110000A5
:1000C00013014188170500C013054572938581808F
:1000D0006308B50023200500130545006FF05FFF9E
:1000E000170500C0130545701301C1FF970500C037
:1000F0009385856F630EB5008326050013054500C3
:100100002320A100E7800600032501006FF01FFEF9
:1001100013014100371500001305058873104530A1
:10012000372500001305858073100530970000C047
:08013000E780C0256F0000000C
:040000058000000077
:00000001FF
